{
  "contractName": "SmartContractConditions",
  "abi": [
    {
      "inputs": [],
      "stateMutability": "nonpayable",
      "type": "constructor"
    },
    {
      "inputs": [],
      "name": "balance",
      "outputs": [
        {
          "internalType": "uint256",
          "name": "",
          "type": "uint256"
        }
      ],
      "stateMutability": "view",
      "type": "function",
      "constant": true
    },
    {
      "inputs": [],
      "name": "owner",
      "outputs": [
        {
          "internalType": "address",
          "name": "",
          "type": "address"
        }
      ],
      "stateMutability": "view",
      "type": "function",
      "constant": true
    },
    {
      "inputs": [],
      "name": "deposit",
      "outputs": [],
      "stateMutability": "payable",
      "type": "function",
      "payable": true
    },
    {
      "inputs": [
        {
          "internalType": "uint256",
          "name": "amount",
          "type": "uint256"
        }
      ],
      "name": "withdraw",
      "outputs": [],
      "stateMutability": "nonpayable",
      "type": "function"
    },
    {
      "inputs": [],
      "name": "verifyBalance",
      "outputs": [],
      "stateMutability": "view",
      "type": "function",
      "constant": true
    },
    {
      "inputs": [],
      "name": "resetContract",
      "outputs": [],
      "stateMutability": "nonpayable",
      "type": "function"
    }
  ],
  "bytecode": "0x608060405234801561000f575f80fd5b50335f806101000a81548173ffffffffffffffffffffffffffffffffffffffff021916908373ffffffffffffffffffffffffffffffffffffffff1602179055506107da8061005c5f395ff3fe608060405260043610610054575f3560e01c80632e1a7d4d146100585780638da5cb5b14610080578063b00328e5146100aa578063b181a8fc146100c0578063b69ef8a8146100d6578063d0e30db014610100575b5f80fd5b348015610063575f80fd5b5061007e6004803603810190610079919061043d565b61010a565b005b34801561008b575f80fd5b5061009461025a565b6040516100a191906104a7565b60405180910390f35b3480156100b5575f80fd5b506100be61027d565b005b3480156100cb575f80fd5b506100d4610291565b005b3480156100e1575f80fd5b506100ea6103a4565b6040516100f791906104cf565b60405180910390f35b6101086103aa565b005b5f8054906101000a900473ffffffffffffffffffffffffffffffffffffffff1673ffffffffffffffffffffffffffffffffffffffff163373ffffffffffffffffffffffffffffffffffffffff1614610197576040517f08c379a000000000000000000000000000000000000000000000000000000000815260040161018e90610542565b60405180910390fd5b6001548111156101dc576040517f08c379a00000000000000000000000000000000000000000000000000000000081526004016101d3906105aa565b60405180910390fd5b8060015f8282546101ed91906105f5565b925050819055505f8054906101000a900473ffffffffffffffffffffffffffffffffffffffff1673ffffffffffffffffffffffffffffffffffffffff166108fc8290811502906040515f60405180830381858888f19350505050158015610256573d5f803e3d5ffd5b5050565b5f8054906101000a900473ffffffffffffffffffffffffffffffffffffffff1681565b600154471461028f5761028e610628565b5b565b5f8054906101000a900473ffffffffffffffffffffffffffffffffffffffff1673ffffffffffffffffffffffffffffffffffffffff163373ffffffffffffffffffffffffffffffffffffffff161461031e576040517f08c379a000000000000000000000000000000000000000000000000000000000815260040161031590610542565b60405180910390fd5b5f6001541115610363576040517f08c379a000000000000000000000000000000000000000000000000000000000815260040161035a906106c5565b60405180910390fd5b5f805f6101000a81548173ffffffffffffffffffffffffffffffffffffffff021916908373ffffffffffffffffffffffffffffffffffffffff160217905550565b60015481565b5f34116103ec576040517f08c379a00000000000000000000000000000000000000000000000000000000081526004016103e390610753565b60405180910390fd5b3460015f8282546103fd9190610771565b92505081905550565b5f80fd5b5f819050919050565b61041c8161040a565b8114610426575f80fd5b50565b5f8135905061043781610413565b92915050565b5f6020828403121561045257610451610406565b5b5f61045f84828501610429565b91505092915050565b5f73ffffffffffffffffffffffffffffffffffffffff82169050919050565b5f61049182610468565b9050919050565b6104a181610487565b82525050565b5f6020820190506104ba5f830184610498565b92915050565b6104c98161040a565b82525050565b5f6020820190506104e25f8301846104c0565b92915050565b5f82825260208201905092915050565b7f43616c6c6572206973206e6f7420746865206f776e65720000000000000000005f82015250565b5f61052c6017836104e8565b9150610537826104f8565b602082019050919050565b5f6020820190508181035f83015261055981610520565b9050919050565b7f496e73756666696369656e742062616c616e63650000000000000000000000005f82015250565b5f6105946014836104e8565b915061059f82610560565b602082019050919050565b5f6020820190508181035f8301526105c181610588565b9050919050565b7f4e487b71000000000000000000000000000000000000000000000000000000005f52601160045260245ffd5b5f6105ff8261040a565b915061060a8361040a565b9250828203905081811115610622576106216105c8565b5b92915050565b7f4e487b71000000000000000000000000000000000000000000000000000000005f52600160045260245ffd5b7f43616e6e6f7420726573657420636f6e7472616374207768696c652062616c615f8201527f6e6365206973206e6f6e2d7a65726f0000000000000000000000000000000000602082015250565b5f6106af602f836104e8565b91506106ba82610655565b604082019050919050565b5f6020820190508181035f8301526106dc816106a3565b9050919050565b7f4465706f73697420616d6f756e74206d757374206265206772656174657220745f8201527f68616e207a65726f000000000000000000000000000000000000000000000000602082015250565b5f61073d6028836104e8565b9150610748826106e3565b604082019050919050565b5f6020820190508181035f83015261076a81610731565b9050919050565b5f61077b8261040a565b91506107868361040a565b925082820190508082111561079e5761079d6105c8565b5b9291505056fea2646970667358221220919dc2b0046a78195e9498475aab5bf672a678bdb085e0c5da0f7eef6d21a1e064736f6c63430008150033",
  "immutableReferences": {},
  "source": "// SPDX-License-Identifier: MIT\npragma solidity ^0.8.21;\n\ncontract SmartContractConditions {\n    // State variables\n    address public owner;\n    uint256 public balance;\n\n    // Constructor to initialize the contract owner\n    constructor() {\n        owner = msg.sender; // Set the deployer as the owner\n    }\n\n    // Modifier to check if the caller is the owner\n    modifier onlyOwner() {\n        require(msg.sender == owner, \"Caller is not the owner\");\n        _;\n    }\n\n    // Function to deposit Ether to the contract\n    function deposit() external payable {\n        require(msg.value > 0, \"Deposit amount must be greater than zero\");\n        balance += msg.value;\n    }\n\n    // Function to withdraw Ether by the owner\n    function withdraw(uint256 amount) external onlyOwner {\n        require(amount <= balance, \"Insufficient balance\");\n        balance -= amount;\n        payable(owner).transfer(amount);\n    }\n\n    // Function to demonstrate the use of assert()\n    function verifyBalance() external view {\n        // Check if the stored balance matches the contract's actual Ether balance\n        assert(address(this).balance == balance);\n    }\n\n    // Function to reset the contract's state (only owner can reset)\n    function resetContract() external onlyOwner {\n        if (balance > 0) {\n            revert(\"Cannot reset contract while balance is non-zero\");\n        }\n        owner = address(0); // Reset the owner to address(0)\n    }\n}\n",
  "sourcePath": "/workspace/solidity_starter/contracts/SmartContractConditions.sol",
  "compiler": {
    "name": "solc",
    "version": "0.8.21+commit.d9974bed.Emscripten.clang"
  },
  "schemaVersion": "3.4.16",
  "updatedAt": "2024-11-26T07:32:25.998Z",
  "networkType": "ethereum",
  "devdoc": {
    "kind": "dev",
    "methods": {},
    "version": 1
  },
  "userdoc": {
    "kind": "user",
    "methods": {},
    "version": 1
  }
}